{
  "contractName": "ZombieAttack",
  "abi": [
    {
      "anonymous": false,
      "inputs": [
        {
          "indexed": false,
          "internalType": "uint256",
          "name": "zombieId",
          "type": "uint256"
        },
        {
          "indexed": false,
          "internalType": "string",
          "name": "name",
          "type": "string"
        },
        {
          "indexed": false,
          "internalType": "uint256",
          "name": "dna",
          "type": "uint256"
        }
      ],
      "name": "NewZombie",
      "type": "event"
    },
    {
      "anonymous": false,
      "inputs": [
        {
          "indexed": true,
          "internalType": "address",
          "name": "previousOwner",
          "type": "address"
        },
        {
          "indexed": true,
          "internalType": "address",
          "name": "newOwner",
          "type": "address"
        }
      ],
      "name": "OwnershipTransferred",
      "type": "event"
    },
    {
      "constant": false,
      "inputs": [
        {
          "internalType": "uint256",
          "name": "_zombieId",
          "type": "uint256"
        },
        {
          "internalType": "uint256",
          "name": "_newDna",
          "type": "uint256"
        }
      ],
      "name": "changeDna",
      "outputs": [],
      "payable": false,
      "stateMutability": "nonpayable",
      "type": "function"
    },
    {
      "constant": false,
      "inputs": [
        {
          "internalType": "uint256",
          "name": "_zombieId",
          "type": "uint256"
        },
        {
          "internalType": "string",
          "name": "_newName",
          "type": "string"
        }
      ],
      "name": "changeName",
      "outputs": [],
      "payable": false,
      "stateMutability": "nonpayable",
      "type": "function"
    },
    {
      "constant": false,
      "inputs": [
        {
          "internalType": "string",
          "name": "_name",
          "type": "string"
        }
      ],
      "name": "createRandomZombie",
      "outputs": [],
      "payable": false,
      "stateMutability": "nonpayable",
      "type": "function"
    },
    {
      "constant": false,
      "inputs": [
        {
          "internalType": "uint256",
          "name": "_zombieId",
          "type": "uint256"
        },
        {
          "internalType": "uint256",
          "name": "_kittyId",
          "type": "uint256"
        }
      ],
      "name": "feedOnKitty",
      "outputs": [],
      "payable": false,
      "stateMutability": "nonpayable",
      "type": "function"
    },
    {
      "constant": true,
      "inputs": [
        {
          "internalType": "address",
          "name": "_owner",
          "type": "address"
        }
      ],
      "name": "getZombiesByOwner",
      "outputs": [
        {
          "internalType": "uint256[]",
          "name": "",
          "type": "uint256[]"
        }
      ],
      "payable": false,
      "stateMutability": "view",
      "type": "function"
    },
    {
      "constant": true,
      "inputs": [],
      "name": "isOwner",
      "outputs": [
        {
          "internalType": "bool",
          "name": "",
          "type": "bool"
        }
      ],
      "payable": false,
      "stateMutability": "view",
      "type": "function"
    },
    {
      "constant": false,
      "inputs": [
        {
          "internalType": "uint256",
          "name": "_zombieId",
          "type": "uint256"
        }
      ],
      "name": "levelUp",
      "outputs": [],
      "payable": true,
      "stateMutability": "payable",
      "type": "function"
    },
    {
      "constant": false,
      "inputs": [],
      "name": "owner",
      "outputs": [
        {
          "internalType": "address payable",
          "name": "",
          "type": "address"
        }
      ],
      "payable": true,
      "stateMutability": "payable",
      "type": "function"
    },
    {
      "constant": false,
      "inputs": [],
      "name": "renounceOwnership",
      "outputs": [],
      "payable": true,
      "stateMutability": "payable",
      "type": "function"
    },
    {
      "constant": false,
      "inputs": [
        {
          "internalType": "address",
          "name": "_address",
          "type": "address"
        }
      ],
      "name": "setKittyContractAddress",
      "outputs": [],
      "payable": false,
      "stateMutability": "nonpayable",
      "type": "function"
    },
    {
      "constant": false,
      "inputs": [
        {
          "internalType": "uint256",
          "name": "_fee",
          "type": "uint256"
        }
      ],
      "name": "setLevelUpFee",
      "outputs": [],
      "payable": false,
      "stateMutability": "nonpayable",
      "type": "function"
    },
    {
      "constant": false,
      "inputs": [
        {
          "internalType": "address payable",
          "name": "newOwner",
          "type": "address"
        }
      ],
      "name": "transferOwnership",
      "outputs": [],
      "payable": false,
      "stateMutability": "nonpayable",
      "type": "function"
    },
    {
      "constant": false,
      "inputs": [],
      "name": "withdraw",
      "outputs": [],
      "payable": false,
      "stateMutability": "nonpayable",
      "type": "function"
    },
    {
      "constant": true,
      "inputs": [
        {
          "internalType": "uint256",
          "name": "",
          "type": "uint256"
        }
      ],
      "name": "zombieToOwner",
      "outputs": [
        {
          "internalType": "address",
          "name": "",
          "type": "address"
        }
      ],
      "payable": false,
      "stateMutability": "view",
      "type": "function"
    },
    {
      "constant": true,
      "inputs": [
        {
          "internalType": "uint256",
          "name": "",
          "type": "uint256"
        }
      ],
      "name": "zombies",
      "outputs": [
        {
          "internalType": "string",
          "name": "name",
          "type": "string"
        },
        {
          "internalType": "uint256",
          "name": "dna",
          "type": "uint256"
        },
        {
          "internalType": "uint32",
          "name": "level",
          "type": "uint32"
        },
        {
          "internalType": "uint32",
          "name": "readyTime",
          "type": "uint32"
        },
        {
          "internalType": "uint16",
          "name": "winCount",
          "type": "uint16"
        },
        {
          "internalType": "uint16",
          "name": "lossCount",
          "type": "uint16"
        }
      ],
      "payable": false,
      "stateMutability": "view",
      "type": "function"
    },
    {
      "constant": false,
      "inputs": [
        {
          "internalType": "uint256",
          "name": "_zombieId",
          "type": "uint256"
        },
        {
          "internalType": "uint256",
          "name": "_targetId",
          "type": "uint256"
        }
      ],
      "name": "attack",
      "outputs": [],
      "payable": false,
      "stateMutability": "nonpayable",
      "type": "function"
    }
  ],
  "bytecode": "0x60806040526010600155600154600a0a6002556201518060035566038d7ea4c6800060085560006009556046600a55336000806101000a81548173ffffffffffffffffffffffffffffffffffffffff021916908373ffffffffffffffffffffffffffffffffffffffff1602179055506000809054906101000a900473ffffffffffffffffffffffffffffffffffffffff1673ffffffffffffffffffffffffffffffffffffffff16600073ffffffffffffffffffffffffffffffffffffffff167f8be0079c531659141344cd1fd0a4f28419497f9722a3daafe3b4186f6b6457e060405160405180910390a3611b84806100f96000396000f3fe6080604052600436106100f35760003560e01c8063715018a61161008a578063c39cbef111610059578063c39cbef114610583578063ccf670f814610613578063e1fa76381461064e578063f2fde38b14610693576100f3565b8063715018a6146104385780637bff0a01146104425780638da5cb5b1461050a5780638f32d59b14610554576100f3565b80634412e104116100c65780634412e10414610281578063528b7b8f146103275780635f4623f1146103a25780635faf2880146103f3576100f3565b80630ce90ec2146100f857806317a7f4cc146101265780632052465e1461016b5780633ccfd60b1461026a575b600080fd5b6101246004803603602081101561010e57600080fd5b81019080803590602001909291905050506106e4565b005b34801561013257600080fd5b506101696004803603604081101561014957600080fd5b810190808035906020019092919080359060200190929190505050610779565b005b34801561017757600080fd5b506101a46004803603602081101561018e57600080fd5b8101908080359060200190929190505050610904565b60405180806020018781526020018663ffffffff1663ffffffff1681526020018563ffffffff1663ffffffff1681526020018461ffff1661ffff1681526020018361ffff1661ffff168152602001828103825288818151815260200191508051906020019080838360005b8381101561022a57808201518184015260208101905061020f565b50505050905090810190601f1680156102575780820380516001836020036101000a031916815260200191505b5097505050505050505060405180910390f35b34801561027657600080fd5b5061027f610a21565b005b34801561028d57600080fd5b506102d0600480360360208110156102a457600080fd5b81019080803573ffffffffffffffffffffffffffffffffffffffff169060200190929190505050610a9f565b6040518080602001828103825283818151815260200191508051906020019060200280838360005b838110156103135780820151818401526020810190506102f8565b505050509050019250505060405180910390f35b34801561033357600080fd5b506103606004803603602081101561034a57600080fd5b8101908080359060200190929190505050610bcc565b604051808273ffffffffffffffffffffffffffffffffffffffff1673ffffffffffffffffffffffffffffffffffffffff16815260200191505060405180910390f35b3480156103ae57600080fd5b506103f1600480360360208110156103c557600080fd5b81019080803573ffffffffffffffffffffffffffffffffffffffff169060200190929190505050610bff565b005b3480156103ff57600080fd5b506104366004803603604081101561041657600080fd5b810190808035906020019092919080359060200190929190505050610c54565b005b610440610d2e565b005b34801561044e57600080fd5b506105086004803603602081101561046557600080fd5b810190808035906020019064010000000081111561048257600080fd5b82018360208201111561049457600080fd5b803590602001918460018302840111640100000000831117156104b657600080fd5b91908080601f016020809104026020016040519081016040528093929190818152602001838380828437600081840152601f19601f820116905080830192505050505050509192919290505050610dfe565b005b610512610e74565b604051808273ffffffffffffffffffffffffffffffffffffffff1673ffffffffffffffffffffffffffffffffffffffff16815260200191505060405180910390f35b34801561056057600080fd5b50610569610e9d565b604051808215151515815260200191505060405180910390f35b34801561058f57600080fd5b50610611600480360360408110156105a657600080fd5b8101908080359060200190929190803590602001906401000000008111156105cd57600080fd5b8201836020820111156105df57600080fd5b8035906020019184600183028401116401000000008311171561060157600080fd5b9091929391929390505050610ef4565b005b34801561061f57600080fd5b5061064c6004803603602081101561063657600080fd5b8101908080359060200190929190505050610fda565b005b34801561065a57600080fd5b506106916004803603604081101561067157600080fd5b810190808035906020019092919080359060200190929190505050610ff5565b005b34801561069f57600080fd5b506106e2600480360360208110156106b657600080fd5b81019080803573ffffffffffffffffffffffffffffffffffffffff169060200190929190505050611281565b005b60085434146106f257600080fd5b61073a60016004838154811061070457fe5b906000526020600020906003020160020160009054906101000a900463ffffffff1663ffffffff1661129e90919063ffffffff16565b6004828154811061074757fe5b906000526020600020906003020160020160006101000a81548163ffffffff021916908363ffffffff16021790555050565b6000600760009054906101000a900473ffffffffffffffffffffffffffffffffffffffff1673ffffffffffffffffffffffffffffffffffffffff1663e98b7f4d836040518263ffffffff1660e01b8152600401808281526020019150506101406040518083038186803b1580156107ef57600080fd5b505afa158015610803573d6000803e3d6000fd5b505050506040513d61014081101561081a57600080fd5b8101908080519060200190929190805190602001909291908051906020019092919080519060200190929190805190602001909291908051906020019092919080519060200190929190805190602001909291908051906020019092919080519060200190929190505050909192939495969798509091929394959697509091929394959650909192939495509091929394509091929350909192509091509050809150506108ff83826040518060400160405280600581526020017f6b697474790000000000000000000000000000000000000000000000000000008152506112c6565b505050565b6004818154811061091157fe5b9060005260206000209060030201600091509050806000018054600181600116156101000203166002900480601f0160208091040260200160405190810160405280929190818152602001828054600181600116156101000203166002900480156109bd5780601f10610992576101008083540402835291602001916109bd565b820191906000526020600020905b8154815290600101906020018083116109a057829003601f168201915b5050505050908060010154908060020160009054906101000a900463ffffffff16908060020160049054906101000a900463ffffffff16908060020160089054906101000a900461ffff169080600201600a9054906101000a900461ffff16905086565b610a29610e9d565b610a3257600080fd5b6000610a3c610e74565b90508073ffffffffffffffffffffffffffffffffffffffff166108fc3073ffffffffffffffffffffffffffffffffffffffff16319081150290604051600060405180830381858888f19350505050158015610a9b573d6000803e3d6000fd5b5050565b606080600660008473ffffffffffffffffffffffffffffffffffffffff1673ffffffffffffffffffffffffffffffffffffffff16815260200190815260200160002054604051908082528060200260200182016040528015610b105781602001602082028038833980820191505090505b509050600080905060008090505b600480549050811015610bc1578473ffffffffffffffffffffffffffffffffffffffff166005600083815260200190815260200160002060009054906101000a900473ffffffffffffffffffffffffffffffffffffffff1673ffffffffffffffffffffffffffffffffffffffff161415610bb45780838381518110610b9f57fe5b60200260200101818152505081806001019250505b8080600101915050610b1e565b508192505050919050565b60056020528060005260406000206000915054906101000a900473ffffffffffffffffffffffffffffffffffffffff1681565b610c07610e9d565b610c1057600080fd5b80600760006101000a81548173ffffffffffffffffffffffffffffffffffffffff021916908373ffffffffffffffffffffffffffffffffffffffff16021790555050565b6014828160048281548110610c6557fe5b906000526020600020906003020160020160009054906101000a900463ffffffff1663ffffffff161015610c9857600080fd5b836005600082815260200190815260200160002060009054906101000a900473ffffffffffffffffffffffffffffffffffffffff1673ffffffffffffffffffffffffffffffffffffffff163373ffffffffffffffffffffffffffffffffffffffff1614610d0457600080fd5b8360048681548110610d1257fe5b9060005260206000209060030201600101819055505050505050565b610d36610e9d565b610d3f57600080fd5b600073ffffffffffffffffffffffffffffffffffffffff166000809054906101000a900473ffffffffffffffffffffffffffffffffffffffff1673ffffffffffffffffffffffffffffffffffffffff167f8be0079c531659141344cd1fd0a4f28419497f9722a3daafe3b4186f6b6457e060405160405180910390a360008060006101000a81548173ffffffffffffffffffffffffffffffffffffffff021916908373ffffffffffffffffffffffffffffffffffffffff160217905550565b6000600660003373ffffffffffffffffffffffffffffffffffffffff1673ffffffffffffffffffffffffffffffffffffffff1681526020019081526020016000205414610e4a57600080fd5b6000610e55826114a8565b905060648181610e6157fe5b0681039050610e708282611536565b5050565b60008060009054906101000a900473ffffffffffffffffffffffffffffffffffffffff16905090565b60008060009054906101000a900473ffffffffffffffffffffffffffffffffffffffff1673ffffffffffffffffffffffffffffffffffffffff163373ffffffffffffffffffffffffffffffffffffffff1614905090565b6002838160048281548110610f0557fe5b906000526020600020906003020160020160009054906101000a900463ffffffff1663ffffffff161015610f3857600080fd5b846005600082815260200190815260200160002060009054906101000a900473ffffffffffffffffffffffffffffffffffffffff1673ffffffffffffffffffffffffffffffffffffffff163373ffffffffffffffffffffffffffffffffffffffff1614610fa457600080fd5b848460048881548110610fb357fe5b90600052602060002090600302016000019190610fd1929190611a2a565b50505050505050565b610fe2610e9d565b610feb57600080fd5b8060088190555050565b816005600082815260200190815260200160002060009054906101000a900473ffffffffffffffffffffffffffffffffffffffff1673ffffffffffffffffffffffffffffffffffffffff163373ffffffffffffffffffffffffffffffffffffffff161461106157600080fd5b60006004848154811061107057fe5b9060005260206000209060030201905060006004848154811061108f57fe5b9060005260206000209060030201905060006110ab6064611808565b9050600a5481116111df576110e060018460020160089054906101000a900461ffff1661ffff166118a190919063ffffffff16565b8360020160086101000a81548161ffff021916908361ffff16021790555061112c60018460020160009054906101000a900463ffffffff1663ffffffff1661129e90919063ffffffff16565b8360020160006101000a81548163ffffffff021916908363ffffffff160217905550611178600183600201600a9054906101000a900461ffff1661ffff166118a190919063ffffffff16565b82600201600a6101000a81548161ffff021916908361ffff1602179055506111da8683600101546040518060400160405280600681526020017f7a6f6d62696500000000000000000000000000000000000000000000000000008152506112c6565b611279565b611209600184600201600a9054906101000a900461ffff1661ffff166118a190919063ffffffff16565b83600201600a6101000a81548161ffff021916908361ffff16021790555061125160018360020160089054906101000a900461ffff1661ffff166118a190919063ffffffff16565b8260020160086101000a81548161ffff021916908361ffff160217905550611278836118c5565b5b505050505050565b611289610e9d565b61129257600080fd5b61129b816118ef565b50565b60008082840190508363ffffffff168163ffffffff1610156112bc57fe5b8091505092915050565b826005600082815260200190815260200160002060009054906101000a900473ffffffffffffffffffffffffffffffffffffffff1673ffffffffffffffffffffffffffffffffffffffff163373ffffffffffffffffffffffffffffffffffffffff161461133257600080fd5b60006004858154811061134157fe5b9060005260206000209060030201905061135a816119e7565b61136357600080fd5b600254848161136e57fe5b06935060006002858360010154018161138357fe5b04905060405160200180807f6b69747479000000000000000000000000000000000000000000000000000000815250600501905060405160208183030381529060405280519060200120846040516020018082805190602001908083835b6020831061140457805182526020820191506020810190506020830392506113e1565b6001836020036101000a0380198251168184511680821785525050505050509050019150506040516020818303038152906040528051906020012014156114585760636064828161145157fe5b0682030190505b6114976040518060400160405280600681526020017f4e6f4e616d65000000000000000000000000000000000000000000000000000081525082611536565b6114a0826118c5565b505050505050565b600080826040516020018082805190602001908083835b602083106114e257805182526020820191506020810190506020830392506114bf565b6001836020036101000a0380198251168184511680821785525050505050509050019150506040516020818303038152906040528051906020012060001c9050600254818161152d57fe5b06915050919050565b6000600160046040518060c00160405280868152602001858152602001600163ffffffff168152602001600354420163ffffffff168152602001600061ffff168152602001600061ffff168152509080600181540180825580915050906001820390600052602060002090600302016000909192909190915060008201518160000190805190602001906115cb929190611aaa565b506020820151816001015560408201518160020160006101000a81548163ffffffff021916908363ffffffff16021790555060608201518160020160046101000a81548163ffffffff021916908363ffffffff16021790555060808201518160020160086101000a81548161ffff021916908361ffff16021790555060a082015181600201600a6101000a81548161ffff021916908361ffff1602179055505050039050336005600083815260200190815260200160002060006101000a81548173ffffffffffffffffffffffffffffffffffffffff021916908373ffffffffffffffffffffffffffffffffffffffff1602179055506117146001600660003373ffffffffffffffffffffffffffffffffffffffff1673ffffffffffffffffffffffffffffffffffffffff16815260200190815260200160002054611a0e90919063ffffffff16565b600660003373ffffffffffffffffffffffffffffffffffffffff1673ffffffffffffffffffffffffffffffffffffffff168152602001908152602001600020819055507f88f026aacbbecc90c18411df4b1185fd8d9be2470f1962f192bf84a27d0704b78184846040518084815260200180602001838152602001828103825284818151815260200191508051906020019080838360005b838110156117c75780820151818401526020810190506117ac565b50505050905090810190601f1680156117f45780820380516001836020036101000a031916815260200191505b5094505050505060405180910390a1505050565b60006118206001600954611a0e90919063ffffffff16565b600981905550814233600954604051602001808481526020018373ffffffffffffffffffffffffffffffffffffffff1673ffffffffffffffffffffffffffffffffffffffff1660601b815260140182815260200193505050506040516020818303038152906040528051906020012060001c8161189957fe5b069050919050565b60008082840190508361ffff168161ffff1610156118bb57fe5b8091505092915050565b60035442018160020160046101000a81548163ffffffff021916908363ffffffff16021790555050565b600073ffffffffffffffffffffffffffffffffffffffff168173ffffffffffffffffffffffffffffffffffffffff16141561192957600080fd5b8073ffffffffffffffffffffffffffffffffffffffff166000809054906101000a900473ffffffffffffffffffffffffffffffffffffffff1673ffffffffffffffffffffffffffffffffffffffff167f8be0079c531659141344cd1fd0a4f28419497f9722a3daafe3b4186f6b6457e060405160405180910390a3806000806101000a81548173ffffffffffffffffffffffffffffffffffffffff021916908373ffffffffffffffffffffffffffffffffffffffff16021790555050565b6000428260020160049054906101000a900463ffffffff1663ffffffff1611159050919050565b600080828401905083811015611a2057fe5b8091505092915050565b828054600181600116156101000203166002900490600052602060002090601f016020900481019282601f10611a6b57803560ff1916838001178555611a99565b82800160010185558215611a99579182015b82811115611a98578235825591602001919060010190611a7d565b5b509050611aa69190611b2a565b5090565b828054600181600116156101000203166002900490600052602060002090601f016020900481019282601f10611aeb57805160ff1916838001178555611b19565b82800160010185558215611b19579182015b82811115611b18578251825591602001919060010190611afd565b5b509050611b269190611b2a565b5090565b611b4c91905b80821115611b48576000816000905550600101611b30565b5090565b9056fea265627a7a723158207a9461dae18e4fe159adbe1eb94a9b6fd66a90f417feeed6970991a1adac96f264736f6c634300050c0032",
  "source": "pragma solidity >=0.5.0 <0.6.0;\r\n\r\nimport \"./zombiehelper.sol\";\r\n\r\ncontract ZombieAttack is ZombieHelper {\r\n    uint256 randNonce = 0;\r\n    uint256 attackVictoryProbability = 70;\r\n\r\n    function randMod(uint256 _modulus) internal returns (uint256) {\r\n        randNonce = randNonce.add(1);\r\n        return\r\n            uint256(keccak256(abi.encodePacked(now, msg.sender, randNonce))) %\r\n            _modulus;\r\n    }\r\n\r\n    function attack(uint256 _zombieId, uint256 _targetId)\r\n        external\r\n        onlyOwnerOf(_zombieId)\r\n    {\r\n        Zombie storage myZombie = zombies[_zombieId];\r\n        Zombie storage enemyZombie = zombies[_targetId];\r\n        uint256 rand = randMod(100);\r\n        if (rand <= attackVictoryProbability) {\r\n            myZombie.winCount = myZombie.winCount.add(1);\r\n            myZombie.level = myZombie.level.add(1);\r\n            enemyZombie.lossCount = enemyZombie.lossCount.add(1);\r\n            feedAndMultiply(_zombieId, enemyZombie.dna, \"zombie\");\r\n        } else {\r\n            myZombie.lossCount = myZombie.lossCount.add(1);\r\n            enemyZombie.winCount = enemyZombie.winCount.add(1);\r\n            _triggerCooldown(myZombie);\r\n        }\r\n    }\r\n}\r\n",
  "sourcePath": "C:\\Games\\VScodeProjects\\cryptoZombies\\contracts\\zombieattack.sol",
  "compiler": {
    "name": "solc",
    "version": "0.5.12+commit.7709ece9.Emscripten.clang"
  },
  "schemaVersion": "3.4.3",
  "updatedAt": "2021-11-23T17:36:33.000Z",
  "devdoc": {
    "methods": {
      "isOwner()": {
        "return": "true if `msg.sender` is the owner of the contract."
      },
      "owner()": {
        "return": "the address of the owner."
      },
      "renounceOwnership()": {
        "details": "Allows the current owner to relinquish control of the contract."
      },
      "transferOwnership(address)": {
        "details": "Allows the current owner to transfer control of the contract to a newOwner.",
        "params": {
          "newOwner": "The address to transfer ownership to."
        }
      }
    }
  },
  "userdoc": {
    "methods": {
      "renounceOwnership()": {
        "notice": "Renouncing to ownership will leave the contract without an owner. It will not be possible to call the functions with the `onlyOwner` modifier anymore."
      }
    }
  }
}